:020000040800F2
:1000000000000220E1460008590A00085B0A0008C7
:100010005D0A00085F0A0008610A0008000000008D
:10002000000000000000000000000000630A00085B
:10003000650A000800000000670A0008690A000855
:1000400031470008314700083147000831470008B0
:1000500031470008314700083147000831470008A0
:100060003147000831470008314700083147000890
:100070003147000831470008314700083147000880
:100080003147000831470008314700083147000870
:100090003147000831470008314700083147000860
:1000A0003147000831470008314700083147000850
:1000B0003147000831470008314700083147000840
:1000C0003147000831470008314700083147000830
:1000D0003147000831470008314700083147000820
:1000E0003147000831470008314700083147000810
:1000F0003147000831470008314700083147000800
:1001000031470008314700083147000831470008EF
:1001100031470008314700083147000831470008DF
:1001200031470008314700083147000831470008CF
:1001300031470008314700083147000831470008BF
:10014000314700083147000831470008710A0008AC
:10015000314700083147000831470008314700089F
:10016000314700083147000831470008314700088F
:1001700031470008314700083147000800000000FF
:08018000314700083147000877
:1001880010B5054C237833B9044B13B10448AFF3C9
:1001980000800123237010BD9000002000000000A3
:1001A8002C49000808B5034B1BB103490348AFF3BA
:1001B800008008BD00000000940000202C490008C1
:1001C80053B94AB9002908BF00281CBF4FF0FF31B6
:1001D8004FF0FF3000F072B9ADF1080C6DE904CEB4
:1001E80000F006F8DDF804E0DDE9022304B070470A
:1001F8002DE9F047089E04468846002B4BD18A42D9
:10020800154667D9B2FA82F24AB1C2F1200701FA5B
:1002180002F320FA07F7954047EA030894404FEAAB
:10022800154E230CB8FBFEF71FFA85FC0EFB17884A
:1002380043EA084307FB0CF1994209D9EB1807F187
:10024800FF3080F01B81994240F21881023F2B4415
:100258005B1AA4B2B3FBFEF00EFB103344EA03446E
:1002680000FB0CFCA44509D92C1900F1FF3380F0E0
:100278000781A44540F2048102382C4440EA074033
:10028800A4EB0C0400271EB1D4400023C6E90043A8
:100298003946BDE8F0878B4209D9002E00F0EB8083
:1002A8000027C6E9000138463946BDE8F087B3FAA9
:1002B80083F7002F47D18B4202D3824200F2FA80A3
:1002C800841A61EB030301209846002EE0D0C6E9AA
:1002D8000048DDE702B9FFDEB2FA82F2002A40F0F8
:1002E8008F80491B4FEA154E1FFA85F80127B1FB8D
:1002F800FEFC230C0EFB1C1143EA014308FB0CF126
:10030800994207D9EB180CF1FF3002D2994200F25A
:10031800CD808446591AA3B2B1FBFEF00EFB10142F
:1003280043EA044408FB00F8A04507D92C1900F15A
:10033800FF3302D2A04500F2B6801846A4EB0804A9
:1003480040EA0C409FE7C7F1200CBB4022FA0CFEA4
:100358004EEA030E01FA07F420FA0CF521FA0CF321
:100368004FEA1E482543B3FBF8F92C0C08FB193358
:100378001FFA8EFA44EA034309FB0AF49C4202FA84
:1003880007F200FA07F10BD91EEB030309F1FF305E
:1003980080F087809C4240F28480A9F1020973446E
:1003A8001B1BADB2B3FBF8F008FB103345EA03445E
:1003B80000FB0AFAA24508D91EEB040400F1FF333A
:1003C8006BD2A24569D90238744440EA0940A0FBBF
:1003D8000289A4EB0A044C45C2464B4654D351D07B
:1003E800002E69D0B1EB0A0564EB030404FA0CFC97
:1003F800FD40FC404CEA0505C6E90054002747E7E4
:10040800C2F1200320FA03F7954001FA02F021FA1D
:1004180003F34FEA154E3843010CB3FBFEF71FFAFE
:1004280085F80EFB173341EA034107FB08F38B42BB
:1004380004FA02F407D9691807F1FF3C2FD28B425E
:100448002DD9023F2944CB1A81B2B3FBFEF00EFB33
:10045800103341EA034100FB08F38B4207D96918BE
:1004680000F1FF3C17D28B4215D902382944C91A2A
:1004780040EA07473BE73746304609E70746E7E6DD
:100488001846FBE64145ABD2B8EB020A69EB0E020F
:1004980001381346A4E76046E9E7184695E767463A
:1004A800D1E781467CE702382C4447E7ACF1020CDF
:1004B8002B442FE7384608E73746E9E6704700BF80
:1004C8002DE9F04F8DB000240794089409940A94FC
:1004D8000B940194564B1A6B42F010021A631A6B74
:1004E80002F010020192019A02941A6B42F004027F
:1004F8001A631A6B02F004020292029A03941A6BAE
:1005080042F080021A631A6B02F080020392039A87
:1005180004941A6B42F001021A631A6B02F001028A
:100528000492049A05941A6B42F002021A631A6B39
:1005380002F002020592059A06941A6B42F008022C
:100548001A631B6B03F008030693069B394E224679
:100558000821304600F077FCDFF8E09001221146D0
:10056800484600F070FCDFF8D88022464FF21001B0
:10057800404600F068FC082707970125089509946C
:100588000A9407A9304600F06DFB07950895099471
:100598000A9407A9484600F065FB079702270897C1
:1005A80009940A944FF0050ACDF82CA007A94846EB
:1005B80000F058FB07954FF49019CDF82090099456
:1005C80007A91D4800F04EFB0423079308940994DB
:1005D800DFF870B007A9584600F044FB4FF4806379
:1005E8000793089709940A94CDF82CA007A95846B0
:1005F80000F038FB4FF210030793089509940A940A
:1006080007A9404600F02EFB20230793089409947D
:1006180007A9404600F026FB0797CDF820900994DB
:1006280007A9304600F01EFB0DB0BDE8F08F00BFF3
:10063800003802400010024000000240000802405A
:10064800000C02400004024072B6FEE708B50A48F2
:100658000A4B03600A4B436000238360C3604FF476
:100668008042026143618361C361036201F0EEF974
:1006780000B908BDFFF7E8FFC000002000540040A3
:10068800A086010008B50A480A4B03604FF40072BF
:10069800426000238360C3600261074A426183614C
:1006A800C361036201F0ACFA00B908BDFFF7CCFFE3
:1006B8006C010020003C00400077010008B50D489F
:1006C8000D4B03604FF48273436000238360C36063
:1006D800036143614FF400728261C3610362436244
:1006E80083620A23C36202F093F900B908BDFFF7D9
:1006F800ABFF00BF140100200030014000B595B0E9
:100708003022002108A804F04BF800230393049337
:100718000593069307930193214A116C41F0805188
:100728001164126C02F080520192019A02931D4BDF
:100738001A6842F480421A601B6803F480430293EB
:10074800029B012308934FF48033099302230E93ED
:100758004FF480020F92082210924FF4A87211925F
:1007680012930723139308A801F040FD98B90F23AB
:10077800039302230493002305934FF4A053069395
:100788004FF480530793052103A801F097FF20B980
:1007980015B05DF804FBFFF757FFFFF755FF00BFE3
:1007A800003802400070004008B500F0B1F9FFF7CA
:1007B800A5FFFFF785FEFFF749FFFFF763FFFFF788
:1007C8007DFF03F02DFE26E0294C01224FF48051D5
:1007D800204600F038FBFA2000F0C6F901224FF459
:1007E8000051204600F02FFBFA2000F0BDF901224D
:1007F8004FF48041204600F026FBFA2000F0B4F9BF
:1008080001224FF40041204600F01DFBFA2000F0C1
:10081800ABF903F025FE0121164800F00DFB012875
:10082800D2D0134C00224FF48051204600F00BFB2D
:10083800FA2000F099F900224FF40051204600F008
:1008480002FBFA2000F090F900224FF48041204684
:1008580000F0F9FAFA2000F087F900224FF400417D
:10086800204600F0F0FAFA2000F07EF9D1E700BF48
:10087800000C02400000024000B583B00021009146
:100888000C4B5A6C42F480425A645A6C02F480420F
:100898000092009A01911A6C42F080521A641B6C03
:1008A80003F080530193019B072000F071F903B016
:1008B8005DF804FB0038024030B589B0002303938B
:1008C80004930593069307930268144B9A4201D048
:1008D80009B030BD00250195114C236B43F002038C
:1008E8002363236B03F002030193019B4FF41073FE
:1008F800039312230493012305930423079303A965
:10090800084800F0AFF90295236C43F40013236400
:10091800236C03F400130293029BD9E700540040B0
:10092800003802400004024070B58CB000230793E1
:10093800089309930A930B9306930268254B9A42EE
:1009480001D00CB070BD01230393C023049302238C
:10095800059303A801F078FF002837D100240094FC
:100968001D4B1A6C42F400421A641A6C02F40042DD
:100978000092009A01941A6B42F001021A631A6BF2
:1009880002F001020192019A02941A6B42F00402E9
:100998001A631B6B03F004030293029B1023079353
:1009A8000226089609940A9406250B9507A90B4870
:1009B80000F058F94FF4A4530793089609940A9441
:1009C8000B9507A9064800F04DF9BAE7FFF73CFE7A
:1009D800C4E700BF003C004000380240000002406D
:1009E8000008024000B589B00023039304930593DF
:1009F800069307930268144B9A4202D009B05DF837
:100A080004FB0021019103F584335A6C42F48052AF
:100A18005A645A6C02F480520192019A02911A6B3C
:100A280042F001021A631B6B03F001030293029B5D
:100A3800E0230393022304930523079303A90348A0
:100A480000F010F9DAE700BF003001400000024072
:100A5800FEE7FEE7FEE7FEE7FEE7704770477047F0
:100A680008B500F06FF808BD08B5024800F001FFAE
:100A780008BD00BF9005002008B503460B4A126860
:100A880042B10A4A106803446A46934206D8074AA4
:100A9800136008BD054A06491160F2E703F046FEF7
:100AA8000C2303604FF0FF30F3E700BFAC000020D9
:100AB80098080020034AD2F8883043F47003C2F83B
:100AC8008830704700ED00E010B504460E4B1878EA
:100AD8004FF47A73B3FBF0F30C4A1068B0FBF3F0F1
:100AE80000F0AAF868B90F2C01D901200AE0002209
:100AF80021464FF0FF3000F05DF8034B5C600020AA
:100B080000E0012010BD00BF04000020000000200C
:100B180008B50B4B1A6842F400721A601A6842F45E
:100B280080621A601A6842F480721A60032000F02A
:100B38002FF80020FFF7C8FFFFF79EFE002008BD32
:100B4800003C0240034A1168034B1B780B441360B6
:100B5800704700BFB401002004000020014B186852
:100B6800704700BFB401002038B50446FFF7F6FF10
:100B78000546B4F1FF3F02D0044B1B781C44FFF735
:100B8800EDFF401BA042FAD338BD00BF040000208F
:100B9800074AD36823F4E0631B041B0C000200F42B
:100BA800E060184340F0BF6040F40030D060704708
:100BB80000ED00E030B4174BDB68C3F30223C3F148
:100BC8000704042C28BF04241D1D062D18D9033B37
:100BD8004FF0FF3505FA04F421EA0401994005FABB
:100BE80003F322EA0303194300280BDB0901C9B206
:100BF80000F1604000F5614080F8001330BC704798
:100C08000023E5E700F00F000901C9B2024B1954AF
:100C1800F4E700BF00ED00E014ED00E0002807DB7A
:100C280000F01F02400901239340024A42F8203095
:100C3800704700BF00E100E00138B0F1807F0AD2C0
:100C4800064B5860064AF02182F82310002098606D
:100C580007221A6070470120704700BF10E000E0CB
:100C680000ED00E000230F2B00F2DC80F0B482B02E
:100C78005DE086685F000324BC4026EA0406CC6871
:100C8800BC4034438460466826EA02064C68C4F3D4
:100C980000129A403243426056E0DC08083450F8AB
:100CA800247003F0070296000F22B24027EA0207D9
:100CB8000A69B2403A4340F8242059E0072200E08C
:100CC8000022B2403A430234574E46F82420574A8D
:100CD8001468EA4302EA04064F6817F4803F01D01B
:100CE80045EA0406514C2660646802EA04064F6827
:100CF80017F4003F01D045EA04064C4C6660A4682E
:100D080002EA04064F6817F4801F01D045EA04067A
:100D1800464CA660E46822404E6816F4001F01D0D5
:100D280045EA0402414CE26001330F2B77D80122D7
:100D38009A400C6804EA0205AA42F5D14C6804F00E
:100D48000304013C012C94D94A6802F00302032AE7
:100D580009D0C4685E000322B24024EA02048A680B
:100D6800B2402243C2604A6802F00302022A94D0C9
:100D780004685E000322B24024EA02044A6802F0D2
:100D88000302B240224302604A6812F4403FCBD0CB
:100D980000220192264A546C44F480445464526CF4
:100DA80002F480420192019A9C08A61C1E4A52F83D
:100DB800267003F0030296000F22B24027EA0207CA
:100DC8001C4A90423FF47CAF02F5806290421AD0F0
:100DD80002F58062904218D002F58062904216D0E7
:100DE80002F58062904214D002F58062904212D0DF
:100DF80002F58062904210D002F5806290423FF482
:100E08005DAF08225DE701225BE7022259E7032272
:100E180057E7042255E7052253E7062251E702B0B7
:100E2800F0BC7047704700BF00380140003C0140EB
:100E380000380240000002400369194201D1002035
:100E480070470120704712B90904816170478161B8
:100E58007047F8B505682C6A04F00F06C4F34343DD
:100E6800C4F30A14022B13D194B12C2303FB0603F9
:100E7800596C69B12C2303FB06031A6D2244DB6C01
:100E88009A4206D92C2303FB0600042380F860301D
:100E9800F8BD07462246284601F0D4FE2C2303FB62
:100EA80006735A6C22445A641A6D22441A6505EB7B
:100EB8004615D5F81025C2F3C942B3F84030A3420D
:100EC800E6D1002AE4D0D5F8003523F0804343F07A
:100ED8000043C5F800352C2000FB067090F854300C
:100EE80083F0010380F85430D2E7F0B585B09DF85F
:100EF80028509DF82C60BDF8307090F8F842012C0D
:100F080038D0012480F8F8422C2404FB01044FF067
:100F1800000C84F83DC084F83830A4F8407084F898
:100F2800391084F83F6002F07F0C84F83AC012F060
:100F3800800F17D12C2404FB01044FF0000C84F817
:100F48003BC004462C2000FB014080F83C5002972F
:100F580001960095206801F0BFFF002384F8F8325D
:100F680005B0F0BD2C2404FB01044FF0010C84F8FB
:100F78003BC0E6E70220F3E790F8F832012B0BD0EC
:100F880010B50446012380F8F832006802F038F8FA
:100F9800002084F8F80210BD02207047002845D0D0
:100FA800F0B58BB00646046890F8F932002B38D0BB
:100FB800032386F8F932E36B13F4807F01D1002311
:100FC8003361306801F0F5FD344654F810CB6D46B6
:100FD8000FCC0FC50FCC0FC594E8030085E80300BC
:100FE800371D97E80E00604601F098FD0121306832
:100FF80001F057FE344654F810CB6D460FCC0FC5A0
:101008000FCC0FC594E8030085E8030097E80E00AD
:10101800604601F077FE012386F8F93200200BB014
:10102800F0BD80F8F83203F023FAC1E701207047D9
:10103800F8B59DF81850BDF820602C2404FB010475
:1010480084F83B2084F83F307DB92C2404FB01044C
:10105800032784F842709DF8247084F83D70032BB0
:101068007FD8DFE803F0097828502C2404FB01041A
:10107800022784F84270F2E7012D72D1002A70D15C
:101088002EB92C2303FB0103012283F855202C23BE
:1010980003FB010393F8553033B92C2303FB0103F9
:1010A800002283F842205CE02C2303FB0103022288
:1010B80083F8422055E092B92C2303FB010393F8EF
:1010C80055302BB92C2303FB010383F8422048E059
:1010D8002C2303FB0103022283F8422041E02C2346
:1010E80003FB010393F8543033B92C2303FB0103AA
:1010F800002283F8422034E02C2303FB0103022260
:1011080083F842202DE092B92C2303FB010393F8C6
:1011180055302BB92C2303FB010383F8422020E030
:101128002C2303FB0103022283F8422019E02C231D
:1011380003FB010393F8543033B92C2303FB010359
:10114800002283F842200CE02C2303FB0103022237
:1011580083F8422005E02C2303FB0103002283F8D7
:1011680042202C2303FB01F3C218079C5464D66465
:10117800002482F86040146582F8391082F86140D2
:1011880003F13801027C0144006801F0BFFFF8BD9B
:1011980030B583B005460468D4F840340193D4F8D8
:1011A80040340093009B23F02E030093019B13F01F
:1011B800020F07D0019B13F0010F25D1009B43F0CC
:1011C80002030093019B13F0080F10D0009B43F01B
:1011D80008030093019B13F0040F2DD0AB69022B79
:1011E80015D0EB68012B22D0284603F0A0F9019B0B
:1011F80013F0200F03D0009B43F020030093009BC3
:10120800C4F8403403B030BD03F084F9D6E7019B3D
:1012180003F4C023B3F5802F04D00121286801F01E
:10122800E9FDE1E70221286801F0E4FDDCE74EF67C
:101238006022C4F80424D7E7284603F07EF9D6E7ED
:10124800F8B505460E46076807EB411707F5A06491
:10125800A36813F0040F40D00423A360E36843F0AD
:101268000203E360A36813F4007F40F09380A3684F
:1012780013F0010F00F0D7802B6943B12C2303FB37
:1012880006539A6C2169C1F31201521A1A652C236C
:1012980003FB0653012283F861200021D965A2606F
:1012A80093F83F30002B00F08180022B7ED0032B77
:1012B80000F09380012B40F083802C2303FB06531E
:1012C800012283F8602093F85410514083F8541099
:1012D8003146284603F02AF972E0A36813F4807FA8
:1012E80006D1A36813F0200F13D02023A360B9E719
:1012F8004FF48073A3602C2303FB0103072283F8B8
:101308006120E36843F00203E360006801F078FEBF
:10131800A8E7A36813F0080F17D1A36813F4806F28
:1013280025D1A36813F0800F9CD0E36843F0020333
:10133800E3602C2303FB0103062283F86120006885
:1013480001F05EFE8023A3608CE7E36843F00203AC
:10135800E3602C2303FB0103052283F8612010239B
:10136800A3600823A360006801F04AFE7AE7E368F7
:1013780043F00203E3602C2303FB0103082283F8F4
:1013880061201023A3604FF48063A360006801F01C
:1013980037FE67E7E36843F00203E36031462868F5
:1013A80001F02EFE4FF40073A360F8BDE36843F02C
:1013B8000203E3603146286801F022FE1023A3608F
:1013C8002B69012B1AD02C2303FB065595F85430B2
:1013D80083F0010385F85430E7E7D7F8003543F088
:1013E8000053C7F800352C2303FB0653012283F86A
:1013F80060203146284603F099F8E1E72C2303FBE7
:1014080006539A6CB3F84030B2FBF3F313F0010FB4
:10141800CBD02C2303FB065595F8543083F00103F9
:1014280085F85430C1E7A36813F0020F64D0E3686D
:1014380023F00203E3602C2303FB065393F8613087
:10144800012B13D0052B23D0062B28D0082B26D010
:10145800032B42D0072B0FD12C2303FB0653DA6D45
:101468000132DA65042283F8602005E02C2303FBAF
:101478000653012283F860200223A3602C2303FB78
:10148800065393F860203146284603F04FF88CE75E
:101498002C2303FB0653052283F86020ECE72C225B
:1014A80002FB0652D36D0133D365022B06D91346CE
:1014B8000022DA65042283F86020DDE72C2303FB91
:1014C8000653022283F86020D7F8003523F08043C2
:1014D80043F00043C7F80035CEE72C2303FB06533F
:1014E800022283F86020D7F8003523F0804343F0C8
:1014F8000043C7F80035BFE7A36813F0100F3FF4A7
:1015080054AF2C2303FB065393F83F30032B0CD026
:101518000BB1022B06D12C2303FB06530022DA65FC
:101528002B6983B11023A3603FE72C2303FB0653E9
:101538000022DA65E36843F00203E3603146286875
:1015480001F05EFDEEE72C2303FB0653032283F82C
:101558006120E36843F00203E3603146286801F044
:101568004FFDDFE770B5036803EB411303F5A06493
:10157800A26812F0040F1ED10E460546A26812F0AA
:10158800200F1FD02023A3602C2303FB010393F813
:101598003D30012B15D12C2303FB0103002283F8D6
:1015A8003D20022283F86020E3681343E36000686B
:1015B80001F026FD05E00423A360E36843F002037D
:1015C800E36070BDA26812F4007F24D1A26812F013
:1015D800010F2BD02C2303FB01030022DA65A3683B
:1015E80013F0400F07D02C2303FB0103012283F8DB
:1015F8003D204023A360E36843F00203E3603146E3
:10160800286801F0FDFC0123A3602C2000FB065094
:1016180080F86130D5E7E36843F00203E3600068CF
:1016280001F0EEFC4FF40073A360CAE7A26812F061
:10163800400F29D1A26812F0080F3AD1A26812F01F
:10164800100F46D02C2303FB01030022DA65032286
:1016580083F8612093F83D305BB92C2303FB010329
:1016680093F83C302BB92C2303FB0103012283F8A8
:101678003D20E36843F00203E3603146286801F047
:10168800BFFC1023A3609CE72C2303FB0103042267
:1016980083F86120012283F83D200022DA65E3689F
:1016A80043F00203E360006801F0AAFC4023A36052
:1016B80087E70823A360E36843F00203E360006858
:1016C80001F09EFC2C2101FB0651052381F86130B5
:1016D80077E7A26812F0800F29D0036983B12C2222
:1016E80002FB0102D36D0133D365022B16D82C21DE
:1016F80001FB0601022381F860308023A36060E7C4
:101708002C2303FB0103062283F86120E36843F0DE
:101718000203E360006801F073FCEEE71346002261
:10172800DA65042283F8602002F000FFE5E7A2688A
:1017380012F4806F27D1A26812F0020F3FF441AF74
:10174800E26822F00202E2602C2202FB010292F817
:101758006120012A2AD0032A68D0042A6DD0052ADC
:1017680072D0062A01D0082A2BD12C2101FB065160
:10177800CA6D0132CA65022A6CD90022CA650422E0
:1017880081F860201DE0E36843F00203E36000682D
:1017980001F036FC1023A3604FF48063A3602C2172
:1017A80001FB0651082381F861300AE72C2303FB6B
:1017B800010383F8602093F83F30023BDBB2934289
:1017C8000BD90223A3602C2303FB065393F8602054
:1017D8003146284602F0AAFEF3E6016941B92C23F6
:1017E80003FB060393F8552082F0010283F8552085
:1017F8000129E6D12C2303FB0653DB6C002BE0D038
:101808002C2202FB0652B2F840201344013BB3FBE2
:10181800F2F313F0010FD4D02C2303FB065393F8F3
:10182800552082F0010283F85520CAE72C2303FBD8
:101838000103022283F86020C3E72C2303FB010382
:10184800022283F86020BCE72C2303FB010383F802
:101858006020B6E72C2202FB0652022182F86010B3
:10186800D3F8002522F0804242F00042C3F8002558
:10187800A7E7F8B504460568284601F00EFA0128DE
:1018880000D0F8BD2E46206801F003FA0028F8D0F1
:10189800206801F0FEF910F4001F03D023684FF40C
:1018A80000125A61206801F0F4F910F4801F03D087
:1018B80023684FF480125A61206801F0EAF910F0A9
:1018C800806F03D023684FF080625A61206801F06E
:1018D800E0F910F0020F02D0236802225A61206852
:1018E80001F0D7F910F0005F08D023684FF00052DC
:1018F8005A61D5F8403413F0010F1DD0206801F06B
:10190800C8F910F0807F26D1206801F0C2F910F0E4
:10191800080F24D1206801F0BCF910F0100F25D170
:10192800206801F0B6F910F0007FAAD0206801F015
:1019380062FB074600252CE01021284601F040F9FB
:10194800284601F055F90121206801F053FA204694
:1019580002F0E6FDD2E72046FFF71AFCD4E720465E
:1019680002F0D2FD236808225A61D3E722689369FE
:1019780023F0100393612046FFF76BFA22689369FE
:1019880043F010039361CBE7E9B22046FFF7EAFD85
:101998000135A368AB4212D905F00F0327FA03F308
:1019A80013F0010FF4D006EB4513D3F8003513F408
:1019B800004FE9D0E9B22046FFF742FCE8E7236888
:1019C8004FF000725A615CE790F8F832012B0ED0A4
:1019D80010B50446012180F8F812006801F049FAB0
:1019E800206801F0E0F8002084F8F80210BD022019
:1019F800704790F8F832012B0BD010B5044601233C
:101A080080F8F832006801F02FFC002084F8F80212
:101A180010BD0220704708B5006801F00BFA08BD38
:101A28002C2303FB010191F8600070472C2303FB72
:101A38000101086D704708B5006801F048FA08BD53
:101A480008B5006801F038FA08BD0000002800F069
:101A5800C880F8B5044690F83D30002B75D0242393
:101A680084F83D302268136823F00103136022686C
:101A7800136843F4004313602268136823F4004397
:101A8800136000F0D1FE6268584B9A4262D8584BF6
:101A980098428CBF00230123002B40F0A480554BB3
:101AA800A3FB00239B0C21684A6822F03F021A43DB
:101AB8004A6025682A6A22F03F0266684B498E42CE
:101AC8004ED8013313432B622568E96921F44F414D
:101AD80021F0FF016368454A93424BD801385B0007
:101AE800B0FBF3F30133C3F30B03042B38BF042318
:101AF8000B43EB6121680B6823F0C003E269206A9D
:101B0800024313430B6021688B6823F4034323F0DB
:101B1800FF032269E068024313438B602168CB68A6
:101B280023F0FF036269A06902431343CB60226874
:101B3800136843F00103136000202064202384F815
:101B48003D30206384F83E00F8BD80F83C30FEF755
:101B5800B3FE84E7284B98428CBF002301239BE700
:101B68004FF4967101FB03F32449A1FB03139B096E
:101B78000133A7E7A268BAB9461E03EB4307B6FBD1
:101B8800F7F60136C6F30B06B6FA86F6760936BBC3
:101B9800C2B9013803EB4303B0FBF3F30133C3F3DA
:101BA8000B0242F40043A3E7461E03EB830707EB4F
:101BB8008707B6FBF7F60136C6F30B06B6FA86F6C4
:101BC8007609E4E7013803EB830303EB8303B0FBF7
:101BD800F3F20132C2F30B0242F4404388E70123D7
:101BE80086E7012070470120AEE700BFA08601000C
:101BF8007F841E0083DE1B43FF083D00D34D621027
:101C0800002800F0BD8070B5044690F84130002BE4
:101C180051D0022284F841202168CB6923F47B63E8
:101C280023F00F03CB6123681A626369934263D080
:101C3800E368002B46D11025A368202B00D86D003F
:101C4800012000F0ABFE2369B3F5007F3CD0B0FB68
:101C5800F5F000EB800043006269B3FBF2F3053353
:101C6800484AA2FB0323DB0803F001029B1A5B0826
:101C78001202991EFD2941D821690A43216813439C
:101C88000B622168CB6923F47B6323F00F0362683E
:101C9800A0680243E0680243A0690243134343F487
:101CA8000063CB61236A012B2ED0002060640123DE
:101CB80084F8413070BD80F84030334B4363FEF701
:101CC80033FEA6E72025B7E7E36853B1AD00B0FBC4
:101CD800F5F000EB800043006269B3FBF2F30533D3
:101CE800BEE7ED00B0FBF5F000EB80004300626951
:101CF800B3FBF2F30533B3E70022BAE7636C43F0B2
:101D0800100363640120D5E7204B63632268204BEE
:101D18009A421FD04FF04022D36923F47B6323F00B
:101D28000F03D36122681A4B9A4215D04FF0402313
:101D380002221A622268164B9A4210D04FF04025B0
:101D4800EB699BB26268B2F5007F0AD0B2B94FF472
:101D5800807008E00F4ADFE7A3F58063E8E70D4DE0
:101D6800EEE74FF480702689A189228B3043014326
:101D78000A43134343F40063EB6196E70020F2E75C
:101D880001207047CDCCCCCC131E00081D200008C4
:101D98000038004000340040704708B5426A0368C4
:101DA8001288DA60436A02334362438D013B9BB277
:101DB8004385438D9BB203B108BD0268536823F085
:101DC800A0035360012380F84130FFF7E5FFF3E7F4
:101DD800704708B50368DA68C36A1A80C36A0233B1
:101DE800C362438E013B9BB24386438E9BB203B1D1
:101DF80008BD0268536823F060035360012380F82C
:101E08004130FFF7E5FFF3E7704710B584B00446AB
:101E180002689368039390F84130DBB2042B06D034
:101E280094F84130DBB2032B2CD004B010BD039BD7
:101E380013F0010F03D0536813F0400F1FD1039B19
:101E480013F0400FECD023685A6812F0200FE7D047
:101E58005A6822F060025A60002301932368DA6806
:101E680001929B680193019B012384F84130636CC4
:101E780043F0020363642046FFF7C6FFD0E7FFF78D
:101E8800A8FFDCE7039B13F0020F04D023685B680C
:101E980013F0800F1DD1039B13F0080FC5D02368E2
:101EA8005A6812F0200FC0D05A6822F0A0025A6077
:101EB8000023029323689B680293029B012384F802
:101EC8004130636C43F0040363642046FFF79CFFD2
:101ED800ABE72046FFF761FFDDE7704708B5436AC7
:101EE8009A1C426202681B88D360438D013B9BB2F7
:101EF8004385438D9BB23BB90268536823F0A00326
:101F08005360438E9BB203B108BD012380F8413072
:101F1800FFF7E3FFF8E7000008B50268144B9A42A0
:101F28001BD04FF04023DA68C36A991CC1621A803B
:101F3800438E013B9BB24386438E9BB263B90268D2
:101F48000B4B9A420CD04FF04022536823F06003A9
:101F58005360438D9BB22BB108BDA3F58063E2E7C4
:101F6800044AF2E7012380F84130FFF7B6FFF3E7B0
:101F7800003800400034004008B5436A9A1C4262A9
:101F88001A880168124B994217D04FF04023DA6043
:101F9800438D013B9BB24385438D9BB263B9026875
:101FA8000B4B9A420CD04FF04022536823F0A00309
:101FB8005360438E9BB22BB108BDA3F58063E6E75F
:101FC800044AF2E7012380F84130FFF786FFF3E780
:101FD800003800400034004008B50368DA68C36A76
:101FE800991CC1621A80438E013B9BB24386438E83
:101FF8009BB23BB90268536823F060035360438D7A
:102008009BB203B108BD012380F84130FFF765FF9B
:10201800F8E7000010B586B0044603689A68059290
:10202800704A93426FD04FF04022916804915B68E8
:102038000393536802936368B3F5007F01D0002BC4
:1020480070D1059B13F0020F03D0039B13F0800F90
:102058005CD1049B13F0010F03D0029B13F0400FD7
:1020680058D1049B13F0400F24D0029B13F0200F8B
:1020780020D022685B4B9A4250D04FF040225368E0
:1020880023F0600353602268536823F0A003536071
:10209800002300932368DA6800929B680093009BF2
:1020A800012384F84130636C43F0020363642046E3
:1020B800FFF7AAFE059B13F0080F22D0039B13F02D
:1020C800200F1ED02268536823F0A00353602268B3
:1020D800444B9A4224D04FF04022536823F06003C7
:1020E80053600023019323689B680193019B01239C
:1020F80084F84130636C43F0040363642046FFF7BF
:1021080083FE06B010BDA2F580628EE72046FFF779
:10211800E5FE9EE72046FFF7FFFEA2E7324AAEE75C
:10212800314ADAE7049B13F0020F03D0029B13F045
:10213800800F4AD1059B13F0010F03D0039B13F0C6
:10214800400F46D1059B13F0400F1CD0039B13F0A2
:10215800200F18D02268536823F060035360226868
:10216800204B9A4239D04FF04022536823F0A00305
:102178005360012384F84130636C43F002036364C5
:102188002046FFF741FE049B13F0080FB9D0029BCD
:1021980013F0200FB5D02268124B9A421FD04FF08F
:1021A8004022536823F0A00353602268536823F049
:1021B80060035360012384F84130636C43F00403E7
:1021C80063642046FFF720FE9BE72046FFF7D4FE16
:1021D800B0E72046FFF700FFB4E7034AC5E7024A25
:1021E800DFE700BF0038004000340040002800F05E
:1021F800E98170B582B00446036813F0010F3BD043
:10220800A74B9B6803F00C03042B2CD0A44B9B68B2
:1022180003F00C03082B21D06368B3F5803F4FD03F
:10222800B3F5A02F52D09E4B1A6822F480321A6060
:102238001A6822F480221A606368002B50D0FEF7D7
:102248008DFC0546964B1B6813F4003F14D1FEF72E
:1022580085FC401B6428F5D90320B8E1904B5B68E6
:1022680013F4800FD8D08E4B1B6813F4003F03D0B3
:102278006368002B00F0A881236813F0020F55D083
:10228800874B9B6813F00C0F3ED0854B9B6803F07F
:102298000C03082B33D0E368002B68D0814B012254
:1022A8001A60FEF75BFC05467D4B1B6813F0020FB6
:1022B80054D1FEF753FC401B0228F5D9032086E1D0
:1022C800774A136843F480331360B5E7744B1A6890
:1022D80042F480221A601A6842F480321A60ABE72E
:1022E800FEF73CFC05466E4B1B6813F4003FC3D059
:1022F800FEF734FC401B6428F5D9032067E1684BDE
:102308005B6813F4800FC6D1654B1B6813F0020F8E
:1023180004D0E368012B01D0012058E1604A13681A
:1023280023F0F803216943EAC1031360236813F01B
:10233800080F40D0636963B35B4B01221A60FEF754
:102348000DFC0546564B5B6F13F0020F33D1FEF7B9
:1023580005FC401B0228F5D9032038E1504A1368D0
:1023680023F0F803216943EAC1031360DEE74D4B0C
:1023780000221A60FEF7F2FB0546494B1B6813F072
:10238800020FD3D0FEF7EAFB401B0228F5D9032041
:102398001DE1454B00221A60FEF7E0FB0546404B65
:1023A8005B6F13F0020F06D0FEF7D8FB401B022824
:1023B800F5D903200BE1236813F0040F79D0384BCB
:1023C8001B6C13F0805F33D100230193344B1A6CDC
:1023D80042F080521A641B6C03F080530193019BF6
:1023E8000125324B1B6813F4807F23D0A368012B8F
:1023F80034D0052B38D02A4B1A6F22F001021A6705
:102408001A6F22F004021A67A368002B36D0FEF771
:10241800A5FB0646224B1B6F13F0020F48D1FEF7AF
:102428009DFB801B41F288339842F3D90320CEE00C
:102438000025D6E71D4A136843F480731360FEF73E
:102448008DFB0646194B1B6813F4807FCED1FEF72F
:1024580085FB801B0228F5D90320B8E0104A136FCA
:1024680043F001031367CFE70D4B1A6F42F00402E4
:102478001A671A6F42F001021A67C5E7FEF76EFB8A
:102488000646074B1B6F13F0020F11D0FEF766FBD1
:10249800801B41F288339842F3D9032097E000BFAC
:1024A8000038024000004742800E4742007000405A
:1024B800EDB9A369002B00F08980484A926802F0C0
:1024C8000C02082A51D0022B17D0454B00221A6063
:1024D800FEF744FB0446414B1B6813F0007F42D0D3
:1024E800FEF73CFB001B0228F5D903206FE03B4AAE
:1024F800136C23F080531364DBE7394B00221A6016
:10250800FEF72CFB0546354B1B6813F0007F06D001
:10251800FEF724FB401B0228F5D9032057E0E369A6
:10252800226A1343626A43EA8213A26A5208013A92
:1025380043EA0243E26A43EA0263284A5360284BAB
:1025480001221A60FEF70AFB0446244B1B6813F0AD
:10255800007F06D1FEF702FB001B0228F5D90320F5
:1025680035E0002033E0002031E0012B31D01B4B57
:102578005B6803F48001E269914201D0012026E002
:1025880003F03F02216A8A4201D001201FE0616AFC
:1025980047F6C0721A40B2EB811F01D0012016E045
:1025A80003F44031A26A5208013AB1EB024F01D05C
:1025B80001200CE003F07063E26AB3EB026F0AD00B
:1025C800012004E001207047012000E0002002B053
:1025D80070BD0120FBE70020F9E700BF003802408A
:1025E80060004742324B9B6803F00C03042B5CD01D
:1025F800082B01D02F4870472DE9F04B2C4B5A6817
:1026080002F03F025B6813F4800F2BD0284B5B6805
:10261800C3F388131E4600275C010025E41A65EB06
:102628000705A90141EA9461A001001B61EB0501BE
:10263800CB0043EA5073C400A01943EB07014B02D7
:1026480043EAD0534402204619460023FDF7B8FD5B
:10265800174B5B68C3F3014301335B00B0FBF3F036
:10266800BDE8F08B124B5B68C3F388131E46002746
:102678005C010025E41A65EB0705A90141EA9461AC
:10268800A001001B61EB0501CB0043EA5073C400B5
:10269800A01943EB07018B0243EA905384022046BA
:1026A80019460023FDF78CFDD2E70348704700BFA9
:1026B800003802400024F40000127A00002800F0DC
:1026C8009E8070B50446504B1B6803F007038B428D
:1026D80009D2CBB24C4A1370136803F007038B423C
:1026E80001D0012070BD236813F0020F17D013F03A
:1026F800040F04D0454A936843F4E0539360236879
:1027080013F0080F04D0414A936843F46043936080
:102718003E4A936823F0F003A068034393600D4694
:10272800236813F0010F32D06368012B21D09A1E61
:10273800012A25D9354A126812F0020F61D03349AF
:102748008A6822F0030213438B60FEF707FA0646F5
:102758002E4B9B6803F00C036268B3EB820F16D014
:10276800FEF7FCF9801B41F288339842F0D9032028
:10277800B8E7264A126812F4003FE0D10120B1E719
:10278800224A126812F0007FD9D10120AAE71E4B15
:102798001B6803F00703AB4209D9EAB21A4B1A7057
:1027A8001B6803F00703AB4201D001209AE72368B6
:1027B80013F0040F06D0154A936823F4E053E16838
:1027C8000B439360236813F0080F07D00F4A9368F0
:1027D80023F46043216943EAC1039360FFF702FFD2
:1027E8000A4B9B68C3F30313094AD35CD840094BCF
:1027F8001860094B1868FEF767F9002072E7012096
:10280800704701206EE700BF003C024000380240DC
:10281800444900080000002008000020014B186807
:10282800704700BF0000002008B5FFF7F7FF044B12
:102838009B68C3F38223034AD35CD84008BD00BF1A
:10284800003802405449000830B583B00446036894
:1028580013F0050F06D1236813F0020F2ED10020C4
:1028680003B030BD494B00221A60FEF777F90546E0
:10287800474B1B6813F0006F06D0FEF76FF9401B3B
:102888000228F5D90320EBE76268A3681B0743EA2F
:1028980082133F4AC2F884303C4B01221A60FEF78B
:1028A8005DF905463A4B1B6813F0006FD3D1FEF76C
:1028B80055F9401B0228F5D90320D1E700230193DD
:1028C800334B1A6C42F080521A641B6C03F080532D
:1028D8000193019B2F4A136843F480731360FEF73A
:1028E8003DF905462B4B1B6813F4807F06D1FEF794
:1028F80035F9401B0228F5D90320B1E7244B1B6F9B
:1029080013F4407312D0E26802F440729A420DD078
:102918001F4B1A6F22F440721F49012008600020E3
:1029280008601A671B6F13F0010F13D1E36803F4F3
:102938004072B2F5407F1ED0154A936823F4F8130D
:10294800936013490B6FE268C2F30B0213430B67E2
:10295800002085E7FEF702F905460D4B1B6F13F0C3
:10296800020FE3D1FEF7FAF8401B41F28833984290
:10297800F3D9032074E706498A6822F4F81223F091
:10298800704323F4407313438B60DAE768004742CF
:102998000038024000700040400E474201282AD10A
:1029A800174B9B6813F4000303D0012B25D115485E
:1029B8007047134B5B6813F4800F14D0104B5B689F
:1029C80003F03F031048B0FBF3F00D4AD2F884300F
:1029D800C3F3881300FB03F0D2F88430C3F3027307
:1029E800B0FBF3F07047064B5B6803F03F03074802
:1029F800B0FBF3F0E9E7002070470020704700BF04
:102A0800003802400080BB0000127A000024F40065
:102A180000285AD010B50446436A33B94368B3F561
:102A2800827F05D00023C36102E000230361436174
:102A38000023A36294F85130002B40D0022384F87D
:102A480051302268136823F040031360636803F46D
:102A58008273A26802F404421343E26802F400623B
:102A68001343226902F002021343626902F0010271
:102A78001343A26902F400721343E26902F03802B8
:102A88001343226A02F080021343A26A02F400523E
:102A9800216813430B60638B03F00403626A02F03E
:102AA8001002216813434B602268D36923F4006342
:102AB800D36100206065012384F8513010BD84F88B
:102AC80050302046FDF78EFFB8E701207047000020
:102AD80082B000230193019B013301930E4A934274
:102AE80014D80369002BF6DA00230193036943F035
:102AF80001030361019B01330193074A934208D8FC
:102B0800036913F0010FF5D1002000E0032002B0A3
:102B180070470320FBE700BF400D030084B010B5E9
:102B2800044603A880E80E00089B012B1FD1A36B65
:102B380023F48033A363E36823F4840323F040037E
:102B4800E360E36823F44013E3600F9B012B09D093
:102B58002046FFF7BDFF069B012B1BD0BDE81040A8
:102B680004B07047E36843F48013E360F0E7E36878
:102B780043F04003E3602046FFF7AAFF0C9B23B90C
:102B8800A36B43F48033A363E5E7A36B23F480339B
:102B9800A363E0E7A36843F00603A360A36843F0D8
:102BA8002003A360DAE7836843F001038360002011
:102BB8007047836823F0010383600020704700009A
:102BC80082B000230193890141F020010161019B3A
:102BD80001330193054A934205D8036913F0200F86
:102BE800F5D1002000E0032002B07047400D03003B
:102BF80082B00023019310230361019B01330193E9
:102C0800054A934205D8036913F0100FF5D1002047
:102C180000E0032002B07047400D030070B49DF837
:102C28000C4064B903339D0807E000EB023303F559
:102C3800805351F8046B1E600134AC42F5D3002078
:102C480070BC704770B483B00646950802F0030262
:102C5800002305E006F58054246841F8044B01334D
:102C6800AB42F7D39AB100F5805003680193084648
:102C78000024E3B2D900019BCB4000F8013B0134AA
:102C8800013A92B2002AF4D103B070BC70470846EA
:102C9800FAE74269806910407047406900F0010016
:102CA800704738B50546C36823F0C043C36001299F
:102CB80013D029BBC36843F08043C36000240120BC
:102CC800FDF752FF01342846FFF7E7FF08B1312C22
:102CD800F5D9322C12D0002038BDC36843F0005318
:102CE800C36000240120FDF73FFF01342846FFF7A9
:102CF800D4FF0128EDD0312CF4D9EAE70120EBE725
:102D08000120E9E784B038B5044605A880E80E003C
:102D180025460023C4F8003EA36B43F40013A363C5
:102D2800A36B23F40023A363A36B23F48023A3637F
:102D3800E36B13F4807F10D0079B012B06D0D4F8E7
:102D4800003423F00403C4F800340CE0D4F8003451
:102D580043F00403C4F8003405E0D4F8003423F049
:102D68000403C4F8003410212046FFF729FF204649
:102D7800FFF73EFF002209E005EB42134FF0FF3159
:102D8800C3F808150021C3F80C150132069B9342BD
:102D9800F2D80023A3614FF0FF336361E36B13F4B0
:102DA800807F17D04FF40073636203F18073A362CE
:102DB8000D4BC4F80031089B1BB9A36943F01003FD
:102DC800A361A269094B1343A3610020BDE8384001
:102DD80004B070478023636203F5C003A362044B09
:102DE800C4F80031E7E700BF0003E000080020A3B3
:102DF800E000400010B400F58064D0F8003423F0FF
:102E08000303C0F80034D0F8003401F00302134380
:102E1800C0F80034012905D0022907D000205DF848
:102E2800044B70474BF680336360F7E741F27073E9
:102E38006360F3E730B583B0044600250195D0F808
:102E480040340193019B23F02E030193019B43F42B
:102E58008073C0F840346420FDF786FE019B23F49C
:102E68008073C4F840340A20FDF77EFE284603B07C
:102E780030BD82B000230193D0F840340193019B08
:102E880023F02E030193019B13F4805F01D10129E4
:102E98000CD0019B13F4805F05D021B9019B23F46A
:102EA8008053C0F84034002002B07047019B43F4BF
:102EB8008053C0F84034ECE782B000230193D0F887
:102EC800403401930198C0F3414002B0704700F5C7
:102ED8008060806880B270472DE9F84391461C46AF
:102EE8009DF8245000EB411606F5A0634FF0FF3221
:102EF8009A60032D6AD8DFE805F0025B021840F2F9
:102F08009D42DA6019F0800F09D1C26B12F4807FFC
:102F18005ED0DA6842F06002DA6000270CE0DA6816
:102F280042F48072DA60002706E040F29D62DA60BF
:102F380019F0800F36D10027D0F8183401F00F01AE
:102F4800012202FA01F11943C0F81814836943F009
:102F58000073836119F0800F3CD14FF00008FFF730
:102F6800ABFF9DF82030022B37D00022A30503F0D9
:102F7800FE534FEAC92909F4F04943EA0903AC04AE
:102F880004F440242343BDF82810C1F30A010B437D
:102F980043EA08031343C6F80035032D24D0384606
:102FA800BDE8F883DA6842F48072DA600027C3E784
:102FB80040F22522DA6019F0800F01D10027BBE723
:102FC800DA6842F4C072DA600027B5E70127B3E790
:102FD8000027B1E74FF40048C1E7022802D04FF4B8
:102FE8000032C3E70022C1E7D6F8003543F00053AA
:102FF800C6F80035D3E700F58060406980B27047B5
:1030080030B400EB411101F5A062D1F80035C3F3EB
:103018008143D1F80045856815F0200F02D0E40FF0
:10302800002C50D03BB3022B25D0D1F8003543F00B
:103038008043C1F80035D0F8103413F47F0F4CD119
:10304800D1F8003523F00043C1F80035D1F8003538
:1030580043F00043C1F80035D1F8003523F40043AC
:10306800C1F8003500230133B3F57A7F2BD81168F6
:103078000029F8DB27E0D1F8003543F08043C1F898
:103088000035836813F0200F1DD1C36A13F47F0F36
:103098001CD1D1F8003523F00043C1F80035D1F830
:1030A800003543F00043C1F80035D1F8003523F46A
:1030B8000043C1F8003500230133B3F57A7F02D805
:1030C80011680029F8DB002030BC7047D1F80035C2
:1030D80043F00043C1F80035F5E7D1F8003543F077
:1030E8000043C1F80035EEE700EB4111064AC1F88C
:1030F8001025D1F8003523F0804343F00043C1F890
:1031080000350020704700BF0000088070B584B00B
:103118004B78C46B14F4807F07D00C792CB9012A42
:1031280013D012B94C79012C1CD04C69F4B10E891A
:10313800A519013DB5FBF6F5ADB2B5F5807F16D9F9
:1031480036020E614FF4807511E0CC790CB1022C77
:10315800E7D100EB4314D4F80C5525F07005C4F8FA
:103168000C55DEE74978FFF7BFFF6BE00125CE7805
:10317800002E4DD00C8904FB05F40C610C69C4F3D6
:103188001204384E06EAC5452C438D7A6D0705F0C2
:10319800C04500EB431303F5A0662C43C3F8104564
:1031A80012B1CC68C3F8144500F58065AC6814F01A
:1031B800010FD3F8004524F00054C3F80045D3F8B4
:1031C80000450CBF4FF0005600263443C3F80045B5
:1031D800D3F800450394039C24F080440394CC78EE
:1031E800C4B1039C44F400440394039C44F0004499
:1031F8000394039CC3F8004522BBCB7813BB4B69EF
:1032080003B3CA79032A15D8DFE802F0091F091F9A
:103218000C61B3E7039C24F400440394E5E703330B
:10322800C26A92B2C3F38F039A4203D2836943F00E
:1032380020038361CC684A788B8A0021009121465B
:10324800FFF7ECFC002004B070BD03332A6992B28A
:10325800C3F38F039A42EDD2836943F0806383619D
:10326800E8E700BF0000F81F70B505460446FFF701
:10327800A0FC10212846FFF7A3FC2846FFF7B8FC5E
:1032880000220AE004EB4211D1F8003523F0802334
:1032980043F08043C1F8003501320F2AF2D90020EB
:1032A800034600E001300F2813D804EB401606F55A
:1032B800A061D6F8002522F4004242F04042C6F848
:1032C80000250133B3F57A7FECD80A68002AF8DBC9
:1032D800E8E74FF0FF33C5F814346B612846FFF771
:1032E80062FC002070BD0020704708B521220274DE
:1032F800202242740022428282820722C28200F087
:1033080006FF08BD08B5A1220274212242740022DA
:10331800428282820722C28200F0F9FE08BD38B5D7
:103328000446D0F87C33D9694031FFF7EBFF0546F6
:1033380020B9D4F8D433022120469847284638BD0E
:1033480038B50546D0F87C33DC69217879B9217B1A
:10335800B1B9617BF1B9D5F87C33D86928B101F0EE
:1033680017FAD5F87C330022DA61002038BD01F065
:103378001DF82178284601F031F800232370E6E78C
:10338800284601F013F8217B284601F027F800238E
:103398002373DEE7284601F009F8617B284601F02F
:1033A8001DF800236373D6E7F0B585B00446012302
:1033B8000222114600F040FB012803D902273846B3
:1033C80005B0F0BD06460146204600F02BFB074637
:1033D800002840F0A280D4F87C53502001F0D0F9A6
:1033E800E861D4F87C33DD69002D00F09880502224
:1033F8000021284601F0D4F91A2303FB064393F869
:103408004E3313F0800F70D16978204600F0D3FF57
:103418000146287094F81C336A7868890290032062
:10342800019094F81D030090204600F0AFFF0022A1
:103438002978204601F0DAF800231A460A212046A6
:1034480000F0FAFA01286CD81A2303FB004393F81A
:103458004E3313F0800F50D1AB731A2303FB004394
:10346800B3F850332B831A2303FB004393F85633E6
:1034780013F0800F49D1AB731A2303FB0040B0F857
:1034880058332B83A97B204600F095FF6873E97BAE
:10349800204600F090FF287394F81C33AA7B697BC0
:1034A800288B02900226019694F81D03009020466E
:1034B80000F06CFF94F81C33EA7B297B688B029040
:1034C800019694F81D030090204600F05FFF002647
:1034D80085F84C603246697B204601F087F8324611
:1034E800297B204601F082F869E76B701A2303FBF9
:1034F8000646B6F850336B8186E7EB731A2303FB55
:103508000043B3F850336B83ADE7EB731A2303FB27
:103518000040B0F858336B83B4E702274FE702271F
:103528004DE702274BE7704730B583B00546D0F822
:103538007C33DC6994F84D30012B03D0022B19D071
:1035480003B030BD606A228B90420AD9637BE1697F
:1035580001200090284600F0E0FE022384F84D3058
:10356800EEE7637BE1690122009282B2284600F00F
:10357800D4FEF2E7617B01F025F8012805D0022886
:10358800DED1012384F84D30DAE7636A228B934257
:103598000AD99B1A6362E3691A44E261636A33B128
:1035A800012384F84D30CBE700236362F6E700235C
:1035B80084F84D302846FFF7B6FFC1E7704738B5A5
:1035C8000546D0F87C33DC6994F84E30032B02D0E2
:1035D800042B09D038BD237B628B216A00F0B3FE2F
:1035E800042384F84E30F5E7217B00F0EBFF012837
:1035F800F0D1217B284600F0DFFFA36A834202D086
:10360800628B824206D3002384F84E302846FFF7A7
:10361800D5FFDFE71B1AA362236A1844206203233D
:1036280084F84E30D6E7704738B50546D0F87C3375
:10363800DC6994F84C30042B04D8DFE803F04C051F
:10364800163C4300012347E0A16CFFF74EFE0346FA
:1036580030B1012840D0042384F84C3001233BE0EA
:10366800022384F84C30012336E004F14001FFF7CF
:1036780049FE0346C0B9002384F84C30636C23F03C
:103688007F42A16C4B6823F07F439A4201D001230B
:1036980022E0226C0B689A4201D001231CE02846E4
:1036A800FFF7C1FF012317E0012815D0042384F890
:1036B8004C30012310E0FFF737FF2846FFF77FFF64
:1036C800012309E0002100F0DFFD38B9002384F868
:1036D8004C30012300E00023184638BD0123FBE7E6
:1036E800002306E003F1E00200EB820200215160B2
:1036F80001330E2BF6D9002304E0C218002182F80A
:103708001C110133B3F5007FF7D300230370437016
:1037180001228270C0F8C433027640218171437659
:1037280080F81C3380F81D2380F81F3380F81E337F
:103738001846704708B50378DBB20B2B00D008BDDC
:10374800D0F87C33002BFAD09B699847F7E770B51F
:1037580084B004464378072B00F23081DFE813F089
:10376800080048006D009E00C300E90004011D0127
:10377800082100F00CFD18B1032821D00125DEE056
:1037880094F82D23A2710125657094F81C332179D2
:1037980002920026019694F81D230092802220466A
:1037A80000F0F4FD94F81C336179A2790292019635
:1037B80094F81D2300923246204600F0E7FDBEE053
:1037C80094F81E330133DBB284F81E33032B03D97C
:1037D8000D2323700125B2E06179204600F0FEFD3B
:1037E8002179204600F0FAFD002323700125A6E088
:1037F800122100F0CCFC18B1032805D001259EE069
:103808000223637001259AE094F81E330133DBB27A
:1038180084F81E33032B03D90D23237001258EE072
:103828006179204600F0DAFD2179204600F0D6FDC6
:10383800002363702370012581E0012100F0F1FC71
:1038480018B1032824D0012579E0022000F0E3FE16
:10385800012584F81C53032363702179A37902930B
:103868000026019694F81D3300932B4680222046AB
:1038780000F08CFD94F81C336179A27902920196CC
:1038880094F81D2300923246204600F07FFD56E052
:103898000D23237000236370012550E0092100F0F7
:1038A8008FFC18B1032805D0012548E00423637074
:1038B800012544E094F81E330133DBB284F81E334B
:1038C800032B03D90D232370012538E061792046A5
:1038D80000F084FD2179204600F080FD002363700C
:1038E800237001252BE0B0F83A1300F069FC18B1F9
:1038F800032805D0012522E00523637001251EE079
:1039080094F81E330133DBB284F81E33032B03D93A
:103918000D232370012512E06179204600F05EFD39
:103928002179204600F05AFD002363702370012599
:1039380005E090F8341329B9062343700125284679
:1039480004B070BDFF2300F58E7200F052FC18B170
:10395800032805D00125F2E7062363700125EEE769
:10396800062363700125EAE790F8351319B9072390
:1039780043700125E3E7FF2300F58E7200F039FC60
:1039880018B1032805D00125D9E70723637001255D
:10399800D5E7072363700125D1E790F8361309B9F5
:1039A8000025CCE7FF2300F58E7200F022FC0546C7
:1039B8000028C4D0032803D00125C0E70125BEE7AD
:1039C8000025BCE7D8B170B504460E4680F8CC2374
:1039D8000025C0F87C53C0F88053FFF781FE84F8B7
:1039E800235384F8205384F8215384F822530EB1CA
:1039F800C4F8D463204600F0A7FD002070BD022063
:103A080070470A4651B1D0F880334BB9591CC0F8F9
:103A18008013DE3340F823200020704702207047CF
:103A28000220704790F83C338B4203D980F8241366
:103A3800002070470220704770B4064600200AE054
:103A48001A2404FB056595F849439C421AD0FF2BBC
:103A580018D0441CE0B2012813D805461A2404FBE8
:103A6800006494F847438C4201D0FF29F1D11A240D
:103A780004FB056494F848439442E1D0FF2AE8D156
:103A8800DEE7FF2070BC704710B5044600F0D0FD9B
:103A98000121204600F09CFD002010BD30B587B004
:103AA800044602238DF8173090F82133DBB2012B3E
:103AB80011D02378DBB20B2B7BD8DFE813F00F0093
:103AC8002100450009017A007D00E70092009C0072
:103AD800A600B700000103230370EAE794F8203337
:103AE800002B66D001232370C82000F094FD2046E7
:103AF80000F0AEFD002384F81C33C4F8C83358E046
:103B080094F82333012B0FD0D4F8C833B3F57A7F58
:103B180013D994F81F330133DBB284F81F33032B16
:103B280008D90D23237044E0002384F81F330223AF
:103B380023703EE0002323703BE00A33C4F8C83307
:103B48000A2000F068FD34E0D4F8D43313B104211E
:103B580020469847642000F05EFD204600F01EFDD8
:103B680084F81D03052323700021204600F023FC60
:103B780060718021204600F01EFC0146207194F8F7
:103B88001C33A27902920025019594F81D23009216
:103B98008022204600F0FAFB94F81C336179A27960
:103BA8000292019594F81D2300922A46204600F0BF
:103BB800EDFB002007B030BD2046FFF7C8FD8DF8AB
:103BC80017009DF81730002BF3D184F8243394F8AC
:103BD8003733012B02D007232370EAE70823237029
:103BE800E7E7D4F8D433002BE3D0012120469847E7
:103BF80008232370DDE794F83D13204600F022FBEC
:103C08000028D6D109232370D3E794F83F3313F063
:103C1800200F02D10A232370CBE70121204600F0B0
:103C280022FB0028C5D10A232370C2E7D4F88033C9
:103C3800002BBED00023C4F87C3373B1D4F87C3396
:103C48000BB39B6820469847D0B906232370D4F855
:103C5800D433032120469847ABE7184603F1DE0228
:103C680054F82220117994F84723914202D0013365
:103C7800DBB2E2E7DE3054F82030C4F87C33DDE70D
:103C88000D23237095E70D23237092E7D4F87C3336
:103C980093B11B69204698478DF817009DF8173097
:103CA8003BB19DF81730DBB2022B82D10D23237074
:103CB8007FE70B2323707CE70D23237079E7D4F883
:103CC8007C33002B3FF475AF5B692046984770E75B
:103CD800002384F821332046FFF702FDD4F87C3313
:103CE8002BB1DB68204698470023C4F87C33D4F80E
:103CF800D43313B105212046984794F82233DBB218
:103D0800012B03D0204600F093FC52E7002384F8EF
:103D180022332046FFF7B8FE4BE7C0F8C4137047BC
:103D280008B5D0F8C4330133C0F8C433FFF702FD37
:103D380008BD012380F823337047002380F823331C
:103D48007047012380F82033002380F8213380F85E
:103D580022331846704738B50446012380F82133CA
:103D6800002580F8205380F8235300F069FC21795E
:103D7800204600F033FB6179204600F02FFB2846EF
:103D880038BD10B40B7803704B7843708B78CC78BF
:103D980043EA042343800B7903714B7943718B7990
:103DA8008371CB79C371082A16D90B7A4A7A43EA08
:103DB800022303818B7ACA7A43EA022343810B7B6D
:103DC8004A7B43EA022383818B7B8373CB7BC37358
:103DD8000B7C03744B7C43745DF8044B70470B7881
:103DE80003704B7843708B788370CB78C3700B79F2
:103DF80003714B7943718B798371CB79C3710B7ADA
:103E0800037270470B7803704B7843708B7883701C
:103E1800CB78C3700B794A7943EA022383808B7984
:103E2800837170474378032B00D070470378023BB7
:103E38009A4228BF1A4692B2002393420DD210B478
:103E4800C418A47801F8014B02339BB29342F7D30C
:103E580000230B705DF8044B704700230B7070470C
:103E680030B583B00446037E013B0A2B00F2E180A3
:103E7800DFE803F0061037435664808C9FADC4001A
:103E8800427900F1100100F011FA02232376012093
:103E980003B030BD417900F095FB012805D0042816
:103EA8001BD0022819D00120F2E7237CE28A4AB10C
:103EB80013F0800F03D1052323760120E8E70323BD
:103EC8002376E5E713F0800F03D10723237601203B
:103ED800DEE7092323760120DAE70B232376012086
:103EE800D6E7D0F8C433C38103798289816800F0AA
:103EF80004FA042323760120CAE7017900F062FB63
:103F0800012806D0052800F09680042804D0012056
:103F1800BEE709232376F5E70B2323760120B7E7CD
:103F28004379828901250095816800F0D0F9D4F899
:103F3800C433E381062323762846A9E7417900F0B4
:103F480041FB012807D0052808D002280AD00428F8
:103F58000CD001209CE70723237699E70C232376CE
:103F6800032095E705232376012091E70B23237689
:103F780002208DE703790022114600F0BEF9D4F83B
:103F8800C433E38108232376012081E7017900F017
:103F980019FB012805D0042807D005284DD0012099
:103FA80076E70D232376002072E70B232376012082
:103FB8006EE74379012500950022114600F087F944
:103FC800D4F8C433E3810A232376284660E741798D
:103FD80000F0F8FA012805D0022807D0042809D0F3
:103FE800012055E70D232376002051E70923237686
:103FF80001204DE70B232376012049E7437E013357
:10400800DBB24376022B10D9D0F8D4330621984777
:10401800002565766179204600F0E0F9217920468F
:1040280000F0DCF92570022032E701202076A0702C
:104038002EE701202CE703202AE7032028E703784E
:104048000A8813440B800378184470472DE9F0411F
:1040580082B00C460B7803704B7843708B78C97824
:1040680043EA012343802379037163794371A37978
:104078008371E379C371237A0372092A44D9054607
:104088000923ADF806300026012E3DD86A88BDF810
:1040980006309A4238D90DF106012046FFF7CFFFC6
:1040A80004464378042BEFD1B0461A2000FB06F0F3
:1040B8000830284421460230FFF791FE00271A23D2
:1040C80003FB08539B7BBB421BD96A88BDF80630AB
:1040D8009A4216D90DF106012046FFF7B0FF0446B3
:1040E8004378052BEBD101371A2000FB08F000EBD1
:1040F800C7000830284421460430FFF783FEFFB28A
:10410800DDE70136F6B2BFE702B0BDE8F08183789B
:10411800012B03D0022B09D0012305E081608281A5
:1041280001230376022282701846704710B50446B0
:10413800FFF796FE034630B1032804D0022806D1C3
:104148000122A27003E00122A27000222276184602
:1041580010BD38B5BDF810508478012C04D02A461B
:104168001946FFF7D4FF38BD61F07F0404740621B7
:104178004174428202F47F44B4F5407F03D00022A8
:104188008282C582EBE740F209428282F9E7F0B504
:1041980083B0044600F58E750E4600912B464FF409
:1041A80080720021FFF7D5FF074610B1384603B0EB
:1041B800F0BD3246294604F22630FFF7E2FDF5E766
:1041C800F0B583B004460E4600F11C0500912B465D
:1041D8004FF400720021FFF7BCFF074610B13846C4
:1041E80003B0F0BD3246294604F54E70FFF72EFFA6
:1041F800F5E7F0B583B017461D4600F58E740093B9
:10420800234641F440720021FFF7A3FF064610B190
:10421800304603B0F0BD2A4639462046FFF702FE75
:10422800F6E708B58378012B04D000221146FFF782
:104238006EFF08BD00230374052242744182838205
:10424800C382F2E708B58378012B04D00022114617
:10425800FFF75DFF08BD0023037409224274418201
:104268008382C382F2E708B58378012B04D0002249
:104278001146FFF74CFF08BD002303740322427464
:1042880041828382C382F2E708B58378012B04D088
:1042980000221146FFF73BFF08BD022303740123E8
:1042A8004374002343828182C382F1E730B585B02D
:1042B8001546002403940823029301910094234691
:1042C8002246294600F0E7F9204605B030BD30B552
:1042D80085B00C4619469DF8203090F81D5305B15D
:1042E80000230393029201940123009300231A46AA
:1042F80000F0D1F9002005B030BD30B585B01D46BD
:104308000024039402920191012200922346294637
:1043180000F0C1F9204605B030BD30B585B00C4677
:1043280019469DF8203090F81D5305B100230393DA
:1043380002920194012300930223002200F0ABF9BA
:10434800002005B030BD30B585B01D46002403946B
:1043580002920191012200920223294600F09BF962
:10436800204605B030BD00230A2B0CD803F1E0022B
:1043780000EB8202526812F4004F02D00133DBB224
:10438800F2E798B270474FF6FF70704710B584B0E7
:10439800BDF8204002949DF81C4001949DF81840F7
:1043A800009400F05DF9002004B010BD08B500F0DD
:1043B8006AF9002008BD38B504460D46FFF7D3FF5B
:1043C8004FF6FF73984207D000F00F0345F40045FD
:1043D800E03304EB83035D60C0B238BD0A2906D818
:1043E800E03100EB81014B68C3F30E034B60002002
:1043F8007047000004290CD0052902D0022904D0F6
:104408007047064B03221A707047044B02221A7039
:104418007047024B01221A70F2E700BFB400002077
:1044280008B501220B490C48FFF7CCFA48B90B49EB
:104438000948FFF7E6FA38B90748FFF725FB30B90E
:1044480008BDFCF701F9F2E7FCF7FEF8F4E7FCF722
:10445800FBF8F5E7FD430008B80100200C00002038
:1044680008B50248FFF71AFB08BD00BFB8010020D5
:10447800F0B589B00023039304930593069307933B
:104488000368B3F1A04F01D009B0F0BD0025019534
:104498001B4C236B43F001032363236B03F00103DD
:1044A8000193019B08AE4FF4007346F8143D154F75
:1044B80031463846FCF7D6FB4FF4E053039302230A
:1044C8000493059506950A23079331463846FCF769
:1044D800C9FB636B43F0800363630295636C43F429
:1044E80080436364636C03F480430293029B2A460F
:1044F80029464320FCF75EFB4320FCF78FFBC3E70C
:10450800003802400000024008B5D0F80003FFF769
:1045180007FC08BD08B5D0F80003FFF712FC08BD7A
:1045280008B5D0F80003FFF716FC08BD704708B5BA
:10453800D0F80003FFF7FDFB08BD08B5D0F800036D
:10454800FFF7FBFB08BD000090F8CC33012B01D02E
:104558000020704710B504460F48C0F80043C4F85F
:10456800D0034FF0A0430360082383600123C36096
:104578000023036102228261C361FCF70FFD40B989
:104588000548FDF758FA01462046FFF7C6FB00200C
:1045980010BDFCF759F8F3E79005002008B5D0F8EE
:1045A800D003FDF74DFA18B1022803D0012008BD49
:1045B8000020FCE70220FAE708B5D0F8D003FDF7A1
:1045C80035FA08BD08B5D0F8D003FDF729FA08BDBB
:1045D80008B590F8CC33012B04D0C820FCF7C4FAF6
:1045E800002008BD084600F06BF8F6E7D0F8D003C5
:1045F8002C2303FB010393F83B3033B92C2303FB33
:10460800010181F85520002070472C2303FB01018C
:1046180081F85420F7E708B5FCF7A6FA08BD18B1E9
:10462800022803D0022070470020704701207047FD
:1046380008B5D0F8D003FDF7C7F9FFF7F0FF08BDBC
:1046480008B5D0F8D003FDF7D4F9FFF7E8FF08BDA7
:1046580008B5D0F8D003FDF7DEF9FFF7E0FF08BD95
:1046680010B584B0D0F8D003BDF8204002949DF86E
:104678001C4001949DF818400094FCF736FCFFF7A5
:10468800CEFF04B010BD08B5D0F8D003FCF774FC19
:10469800FFF7C5FF08BD10B584B0D0F8D0039DF86A
:1046A80024400394BDF820400294079C01949DF88F
:1046B80018400094FCF7BCFCFFF7B1FF04B010BD34
:1046C80008B528B1002201210248FCF7BCFB08BD4F
:1046D8000122F8E700080240DFF834D00D480E49FF
:1046E8000E4A002302E0D458C4500433C4188C4244
:1046F800F9D30B4A0B4C002301E013600432A242A9
:10470800FBD3FCF7D7F900F017F8FCF74DF8704722
:1047180000000220000000209000002070490008DE
:104728009000002098080020FEE70000014B186860
:10473800704700BF2C00002070B50D4E0D4CA41B17
:10474800A4100025A54209D10B4E0C4C00F0EAF844
:10475800A41BA4100025A54205D170BD56F825302C
:1047680098470135EEE756F8253098470135F2E7C6
:104778006849000868490008684900086C49000849
:10478800024B0146186800F061B800BF2C000020F9
:10479800024B0146186800F00BB800BF2C0000203F
:1047A80002440346934200D1704703F8011BF9E71E
:1047B80038B50546002945D051F8043C0C1F002B9C
:1047C800B8BFE41800F0ACF81F4A1368104633B9B4
:1047D800636014602846BDE8384000F0A2B8A342E0
:1047E8000CD921686218934204BF1A685B68636039
:1047F80004BF521822600460ECE713465A680AB1F5
:10480800A242FAD919685818A0420BD1206801446D
:10481800581882421960DDD1106852685A60014404
:104828001960D7E702D90C232B60D3E72068211839
:104838008A4204BF11685268626004BF0918216087
:104848005C60C7E738BD00BFB800002070B5CD1C5C
:1048580025F0030508350C2D38BF0C25002D06461C
:1048680001DBA94203D90C233360002070BD00F09E
:1048780057F8214A1468214691B9204C23681BB97E
:10488800304600F03DF820602946304600F038F800
:10489800431C24D10C233360304600F042F8E4E78F
:1048A8000B685B1B18D40B2B0FD90B60CD50CC18A1
:1048B800304600F036F804F10B00231D20F0070005
:1048C800C31AD3D05A42E250D0E78C424B6816BF85
:1048D800636013600C46EBE70C464968CCE7C41CE0
:1048E80024F00304A04205D0211A304600F008F84D
:1048F8000130CFD02560DBE7B8000020BC000020E5
:1049080038B5064C0023054608462360FCF7B4F882
:10491800431C02D1236803B12B6038BD94080020E2
:1049280070477047F8B500BFF8BC08BC9E46704792
:0C493800F8B500BFF8BC08BC9E467047F4
:10494400000000000000000001020304060708093B
:0C49540000000000010203044344430083
:0849600098B8FF7F0100000080
:04496800AD01000895
:04496C0089010008B5
:104970000024F40001000000100000005C49000861
:1049800002000000B1330008493300082733000853
:1049900031360008EF32000800000000300000202F
:1049A0000000000000000000000000000000000007
:1049B00000000000000000000000000000000000F7
:1049C00000000000000000000000000000000000E7
:1049D00000000000000000000000000000000000D7
:1049E00000000000000000000000000000000000C7
:1049F00000000000000000000000000000000000B7
:04000005080046E1C8
:00000001FF
